{
  "contractName": "Proxy",
  "abi": [
    {
      "inputs": [
        {
          "internalType": "address",
          "name": "_storageAddress",
          "type": "address"
        },
        {
          "internalType": "uint256",
          "name": "_version",
          "type": "uint256"
        },
        {
          "internalType": "string",
          "name": "_name",
          "type": "string"
        },
        {
          "internalType": "string",
          "name": "_info",
          "type": "string"
        }
      ],
      "payable": false,
      "stateMutability": "nonpayable",
      "type": "constructor"
    },
    {
      "anonymous": false,
      "inputs": [
        {
          "indexed": false,
          "internalType": "uint256",
          "name": "",
          "type": "uint256"
        },
        {
          "indexed": false,
          "internalType": "address",
          "name": "",
          "type": "address"
        },
        {
          "indexed": false,
          "internalType": "string",
          "name": "",
          "type": "string"
        }
      ],
      "name": "Log",
      "type": "event"
    },
    {
      "constant": true,
      "inputs": [],
      "name": "getInfo",
      "outputs": [
        {
          "internalType": "string",
          "name": "",
          "type": "string"
        }
      ],
      "payable": false,
      "stateMutability": "view",
      "type": "function"
    },
    {
      "constant": true,
      "inputs": [],
      "name": "getName",
      "outputs": [
        {
          "internalType": "string",
          "name": "",
          "type": "string"
        }
      ],
      "payable": false,
      "stateMutability": "view",
      "type": "function"
    },
    {
      "constant": true,
      "inputs": [],
      "name": "getOwner",
      "outputs": [
        {
          "internalType": "address",
          "name": "",
          "type": "address"
        }
      ],
      "payable": false,
      "stateMutability": "view",
      "type": "function"
    },
    {
      "constant": true,
      "inputs": [],
      "name": "getVersion",
      "outputs": [
        {
          "internalType": "uint256",
          "name": "",
          "type": "uint256"
        }
      ],
      "payable": false,
      "stateMutability": "view",
      "type": "function"
    },
    {
      "constant": true,
      "inputs": [
        {
          "internalType": "string",
          "name": "_name",
          "type": "string"
        }
      ],
      "name": "getAbi",
      "outputs": [
        {
          "internalType": "string",
          "name": "",
          "type": "string"
        }
      ],
      "payable": false,
      "stateMutability": "view",
      "type": "function"
    },
    {
      "constant": true,
      "inputs": [
        {
          "internalType": "string",
          "name": "_name",
          "type": "string"
        }
      ],
      "name": "getContract",
      "outputs": [
        {
          "internalType": "address",
          "name": "",
          "type": "address"
        }
      ],
      "payable": false,
      "stateMutability": "view",
      "type": "function"
    }
  ],
  "bytecode": "0x6080604052600080546001600160a01b031916905534801561002057600080fd5b50604051610e6f380380610e6f8339818101604052608081101561004357600080fd5b8151602083015160408085018051915193959294830192918464010000000082111561006e57600080fd5b90830190602082018581111561008357600080fd5b825164010000000081118282018810171561009d57600080fd5b82525081516020918201929091019080838360005b838110156100ca5781810151838201526020016100b2565b50505050905090810190601f1680156100f75780820380516001836020036101000a031916815260200191505b506040526020018051604051939291908464010000000082111561011a57600080fd5b90830190602082018581111561012f57600080fd5b825164010000000081118282018810171561014957600080fd5b82525081516020918201929091019080838360005b8381101561017657818101518382015260200161015e565b50505050905090810190601f1680156101a35780820380516001836020036101000a031916815260200191505b506040818152600080546001600160a01b0319166001600160a01b038b8116919091178083557f56657273696f6e000000000000000000000000000000000000000000000000006020808701919091523060601b60278701528451808703601b018152603b8701808752815191909201207fe2a4853a00000000000000000000000000000000000000000000000000000000909152603f860152605f85018b905292518b97508a9650899550889432949092169263e2a4853a92607f808201939182900301818387803b15801561027957600080fd5b505af115801561028d573d6000803e3d6000fd5b505060008054604080517f4e616d65000000000000000000000000000000000000000000000000000000006020808301919091523060601b602483015282516018818403018152603883018085528151918301919091207f6e89955000000000000000000000000000000000000000000000000000000000909152603c8301818152605c84019485528b51607c8501528b516001600160a01b039096169850636e899550975090958b95919493609c0192860191908190849084905b83811015610361578181015183820152602001610349565b50505050905090810190601f16801561038e5780820380516001836020036101000a031916815260200191505b509350505050600060405180830381600087803b1580156103ae57600080fd5b505af11580156103c2573d6000803e3d6000fd5b505060008054604080517f496e666f000000000000000000000000000000000000000000000000000000006020808301919091523060601b602483015282516018818403018152603883018085528151918301919091207f6e89955000000000000000000000000000000000000000000000000000000000909152603c8301818152605c84019485528a51607c8501528a516001600160a01b039096169850636e899550975090958a95919493609c0192860191908190849084905b8381101561049657818101518382015260200161047e565b50505050905090810190601f1680156104c35780820380516001836020036101000a031916815260200191505b509350505050600060405180830381600087803b1580156104e357600080fd5b505af11580156104f7573d6000803e3d6000fd5b505060008054604080517f4f776e65720000000000000000000000000000000000000000000000000000006020808301919091523060601b60258301528251601981840301815260398301808552815191909201207fca446dd900000000000000000000000000000000000000000000000000000000909152603d8201526001600160a01b03878116605d830152915191909216945063ca446dd99350607d808301939282900301818387803b1580156105b057600080fd5b505af11580156105c4573d6000803e3d6000fd5b5050505050505050505050505061088f806105e06000396000f3fe608060405234801561001057600080fd5b50600436106100625760003560e01c80630d8e6e2c1461006757806317d7de7c1461008157806335817773146100fe5780635a9b0b89146101be578063893d20e8146101c65780638d717ac5146101ce575b600080fd5b61006f610272565b60408051918252519081900360200190f35b610089610323565b6040805160208082528351818301528351919283929083019185019080838360005b838110156100c35781810151838201526020016100ab565b50505050905090810190601f1680156100f05780820380516001836020036101000a031916815260200191505b509250505060405180910390f35b6101a26004803603602081101561011457600080fd5b810190602081018135600160201b81111561012e57600080fd5b82018360208201111561014057600080fd5b803590602001918460018302840111600160201b8311171561016157600080fd5b91908080601f016020809104026020016040519081016040528093929190818152602001838380828437600092019190915250929550610492945050505050565b604080516001600160a01b039092168252519081900360200190f35b610089610594565b6101a2610613565b610089600480360360208110156101e457600080fd5b810190602081018135600160201b8111156101fe57600080fd5b82018360208201111561021057600080fd5b803590602001918460018302840111600160201b8311171561023157600080fd5b91908080601f016020809104026020016040519081016040528093929190818152602001838380828437600092019190915250929550610691945050505050565b6000805460408051662b32b939b4b7b760c91b6020808301919091523060601b60278301528251601b818403018152603b830180855281519183019190912063bd02d0f560e01b909152603f83015291516001600160a01b039093169263bd02d0f592605f80840193919291829003018186803b1580156102f257600080fd5b505afa158015610306573d6000803e3d6000fd5b505050506040513d602081101561031c57600080fd5b5051905090565b6000805460408051634e616d6560e01b60208083019190915230606090811b6024840152835160188185030181526038840180865281519190930120634c373c8d60e11b909252603c830191909152915191936001600160a01b039093169263986e791a92605c80840193829003018186803b1580156103a257600080fd5b505afa1580156103b6573d6000803e3d6000fd5b505050506040513d6000823e601f3d908101601f1916820160405260208110156103df57600080fd5b8101908080516040519392919084600160201b8211156103fe57600080fd5b90830190602082018581111561041357600080fd5b8251600160201b81118282018810171561042c57600080fd5b82525081516020918201929091019080838360005b83811015610459578181015183820152602001610441565b50505050905090810190601f1680156104865780820380516001836020036101000a031916815260200191505b50604052505050905090565b600080546040516710dbdb9d1c9858dd60c21b6020808301918252855185946001600160a01b0316936321f8a7219388939092602890920191908401908083835b602083106104f25780518252601f1990920191602091820191016104d3565b6001836020036101000a038019825116818451168082178552505050505050905001915050604051602081830303815290604052805190602001206040518263ffffffff1660e01b81526004018082815260200191505060206040518083038186803b15801561056157600080fd5b505afa158015610575573d6000803e3d6000fd5b505050506040513d602081101561058b57600080fd5b50519392505050565b600080546040805163496e666f60e01b60208083019190915230606090811b6024840152835160188185030181526038840180865281519190930120634c373c8d60e11b909252603c830191909152915191936001600160a01b039093169263986e791a92605c80840193829003018186803b1580156103a257600080fd5b60008054604080516427bbb732b960d91b6020808301919091523060601b602583015282516019818403018152603983018085528151918301919091206321f8a72160e01b909152603d83015291516001600160a01b03909316926321f8a72192605d80840193919291829003018186803b1580156102f257600080fd5b6060806000809054906101000a90046001600160a01b03166001600160a01b031663986e791a8460405160200180806241626960e81b81525060030182805190602001908083835b602083106106f85780518252601f1990920191602091820191016106d9565b6001836020036101000a038019825116818451168082178552505050505050905001915050604051602081830303815290604052805190602001206040518263ffffffff1660e01b81526004018082815260200191505060006040518083038186803b15801561076757600080fd5b505afa15801561077b573d6000803e3d6000fd5b505050506040513d6000823e601f3d908101601f1916820160405260208110156107a457600080fd5b8101908080516040519392919084600160201b8211156107c357600080fd5b9083019060208201858111156107d857600080fd5b8251600160201b8111828201881017156107f157600080fd5b82525081516020918201929091019080838360005b8381101561081e578181015183820152602001610806565b50505050905090810190601f16801561084b5780820380516001836020036101000a031916815260200191505b5060405250919594505050505056fea265627a7a72315820edc9572be06bb9f4076f93a0ae99ec908cbe9c402e38a50a0cc14d1ec99dae6f64736f6c634300050c0032",
  "source": "pragma solidity >=0.4.21 <0.7.0;\n\nimport \"./api/Storage/StorageApi.sol\";\nimport \"./Base.sol\";\n\ncontract Proxy is Base{\n\n    constructor(address _storageAddress, uint256 _version, string memory _name,string memory  _info) Base(_storageAddress,_version,_name,_info,tx.origin) public {\n    }\n    function getAbi(string memory _name) public view returns (string memory){\n        string memory abiJson = storageApi.getString(keccak256(abi.encodePacked(\"Abi\", _name)));\n        //require(keccak256(abi.encodePacked(abiJson)) != keccak256(abi.encodePacked(\"\")), \"Contract not found.\");\n        return abiJson;\n    }\n\n    function getContract(string memory _name) public view returns (address){\n        address contractAddress = storageApi.getAddress(keccak256(abi.encodePacked(\"Contract\", _name)));\n        //require(address(contractAddress) != address(0x0), \"Contract not found.\");\n        return contractAddress;\n    }\n\n}\n",
  "sourcePath": "/home/pooldao/contracts/Proxy.sol",
  "compiler": {
    "name": "solc",
    "version": "0.5.12+commit.7709ece9.Emscripten.clang"
  },
  "schemaVersion": "3.0.20",
  "updatedAt": "2020-01-14T01:43:12.095Z",
  "networkType": "ethereum",
  "devdoc": {
    "methods": {}
  },
  "userdoc": {
    "methods": {}
  }
}